{
  "_format": "hh-sol-artifact-1",
  "contractName": "LuxuryWatchNFT",
  "sourceName": "contracts/LuxuryWatchNFT.sol",
  "abi": [
    {
      "inputs": [],
      "stateMutability": "nonpayable",
      "type": "constructor"
    },
    {
      "anonymous": false,
      "inputs": [
        {
          "indexed": true,
          "internalType": "address",
          "name": "owner",
          "type": "address"
        },
        {
          "indexed": true,
          "internalType": "address",
          "name": "approved",
          "type": "address"
        },
        {
          "indexed": true,
          "internalType": "uint256",
          "name": "tokenId",
          "type": "uint256"
        }
      ],
      "name": "Approval",
      "type": "event"
    },
    {
      "anonymous": false,
      "inputs": [
        {
          "indexed": true,
          "internalType": "address",
          "name": "owner",
          "type": "address"
        },
        {
          "indexed": true,
          "internalType": "address",
          "name": "operator",
          "type": "address"
        },
        {
          "indexed": false,
          "internalType": "bool",
          "name": "approved",
          "type": "bool"
        }
      ],
      "name": "ApprovalForAll",
      "type": "event"
    },
    {
      "anonymous": false,
      "inputs": [
        {
          "indexed": false,
          "internalType": "uint256",
          "name": "_fromTokenId",
          "type": "uint256"
        },
        {
          "indexed": false,
          "internalType": "uint256",
          "name": "_toTokenId",
          "type": "uint256"
        }
      ],
      "name": "BatchMetadataUpdate",
      "type": "event"
    },
    {
      "anonymous": false,
      "inputs": [
        {
          "indexed": false,
          "internalType": "string",
          "name": "componentId",
          "type": "string"
        },
        {
          "indexed": false,
          "internalType": "address",
          "name": "certifier",
          "type": "address"
        },
        {
          "indexed": false,
          "internalType": "string",
          "name": "remarks",
          "type": "string"
        }
      ],
      "name": "ComponentCertified",
      "type": "event"
    },
    {
      "anonymous": false,
      "inputs": [
        {
          "indexed": false,
          "internalType": "string",
          "name": "componentId",
          "type": "string"
        },
        {
          "indexed": false,
          "internalType": "string",
          "name": "componentType",
          "type": "string"
        },
        {
          "indexed": false,
          "internalType": "string",
          "name": "rawMaterialId",
          "type": "string"
        }
      ],
      "name": "ComponentCreated",
      "type": "event"
    },
    {
      "anonymous": false,
      "inputs": [
        {
          "indexed": false,
          "internalType": "uint256",
          "name": "_tokenId",
          "type": "uint256"
        }
      ],
      "name": "MetadataUpdate",
      "type": "event"
    },
    {
      "anonymous": false,
      "inputs": [
        {
          "indexed": true,
          "internalType": "uint256",
          "name": "tokenId",
          "type": "uint256"
        },
        {
          "indexed": false,
          "internalType": "string",
          "name": "newMetadataURI",
          "type": "string"
        },
        {
          "indexed": false,
          "internalType": "string",
          "name": "updateReason",
          "type": "string"
        }
      ],
      "name": "MetadataUpdated",
      "type": "event"
    },
    {
      "anonymous": false,
      "inputs": [
        {
          "indexed": false,
          "internalType": "string",
          "name": "watchId",
          "type": "string"
        },
        {
          "indexed": false,
          "internalType": "address",
          "name": "from",
          "type": "address"
        },
        {
          "indexed": false,
          "internalType": "address",
          "name": "to",
          "type": "address"
        }
      ],
      "name": "OwnershipTransferred",
      "type": "event"
    },
    {
      "anonymous": false,
      "inputs": [
        {
          "indexed": true,
          "internalType": "address",
          "name": "previousOwner",
          "type": "address"
        },
        {
          "indexed": true,
          "internalType": "address",
          "name": "newOwner",
          "type": "address"
        }
      ],
      "name": "OwnershipTransferred",
      "type": "event"
    },
    {
      "anonymous": false,
      "inputs": [
        {
          "indexed": false,
          "internalType": "string",
          "name": "componentId",
          "type": "string"
        },
        {
          "indexed": false,
          "internalType": "string",
          "name": "materialType",
          "type": "string"
        },
        {
          "indexed": false,
          "internalType": "string",
          "name": "origin",
          "type": "string"
        }
      ],
      "name": "RawMaterialRegistered",
      "type": "event"
    },
    {
      "anonymous": false,
      "inputs": [
        {
          "indexed": false,
          "internalType": "string",
          "name": "watchId",
          "type": "string"
        },
        {
          "indexed": false,
          "internalType": "string",
          "name": "status",
          "type": "string"
        },
        {
          "indexed": false,
          "internalType": "string",
          "name": "location",
          "type": "string"
        }
      ],
      "name": "ShippingStatusUpdated",
      "type": "event"
    },
    {
      "anonymous": false,
      "inputs": [
        {
          "indexed": true,
          "internalType": "address",
          "name": "from",
          "type": "address"
        },
        {
          "indexed": true,
          "internalType": "address",
          "name": "to",
          "type": "address"
        },
        {
          "indexed": true,
          "internalType": "uint256",
          "name": "tokenId",
          "type": "uint256"
        }
      ],
      "name": "Transfer",
      "type": "event"
    },
    {
      "anonymous": false,
      "inputs": [
        {
          "indexed": false,
          "internalType": "string",
          "name": "watchId",
          "type": "string"
        },
        {
          "indexed": false,
          "internalType": "string[]",
          "name": "componentIds",
          "type": "string[]"
        }
      ],
      "name": "WatchAssembled",
      "type": "event"
    },
    {
      "anonymous": false,
      "inputs": [
        {
          "indexed": false,
          "internalType": "string",
          "name": "watchId",
          "type": "string"
        },
        {
          "indexed": false,
          "internalType": "address",
          "name": "retailer",
          "type": "address"
        },
        {
          "indexed": false,
          "internalType": "uint256",
          "name": "retailPrice",
          "type": "uint256"
        }
      ],
      "name": "WatchAvailableForSale",
      "type": "event"
    },
    {
      "anonymous": false,
      "inputs": [
        {
          "indexed": true,
          "internalType": "string",
          "name": "watchId",
          "type": "string"
        },
        {
          "indexed": true,
          "internalType": "uint256",
          "name": "tokenId",
          "type": "uint256"
        },
        {
          "indexed": true,
          "internalType": "address",
          "name": "assembler",
          "type": "address"
        },
        {
          "indexed": false,
          "internalType": "string",
          "name": "metadataURI",
          "type": "string"
        }
      ],
      "name": "WatchNFTMinted",
      "type": "event"
    },
    {
      "anonymous": false,
      "inputs": [
        {
          "indexed": false,
          "internalType": "string",
          "name": "watchId",
          "type": "string"
        },
        {
          "indexed": false,
          "internalType": "address",
          "name": "buyer",
          "type": "address"
        },
        {
          "indexed": false,
          "internalType": "address",
          "name": "seller",
          "type": "address"
        },
        {
          "indexed": false,
          "internalType": "uint256",
          "name": "displayPrice",
          "type": "uint256"
        }
      ],
      "name": "WatchPurchased",
      "type": "event"
    },
    {
      "inputs": [
        {
          "internalType": "address",
          "name": "to",
          "type": "address"
        },
        {
          "internalType": "uint256",
          "name": "tokenId",
          "type": "uint256"
        }
      ],
      "name": "approve",
      "outputs": [],
      "stateMutability": "nonpayable",
      "type": "function"
    },
    {
      "inputs": [
        {
          "internalType": "string",
          "name": "_watchId",
          "type": "string"
        },
        {
          "internalType": "string[]",
          "name": "_componentIds",
          "type": "string[]"
        },
        {
          "internalType": "string",
          "name": "_image",
          "type": "string"
        },
        {
          "internalType": "string",
          "name": "_location",
          "type": "string"
        },
        {
          "internalType": "string",
          "name": "_timestamp",
          "type": "string"
        },
        {
          "internalType": "string",
          "name": "_metadataURI",
          "type": "string"
        }
      ],
      "name": "assembleWatch",
      "outputs": [],
      "stateMutability": "nonpayable",
      "type": "function"
    },
    {
      "inputs": [
        {
          "internalType": "string",
          "name": "_watchId",
          "type": "string"
        },
        {
          "internalType": "string[]",
          "name": "_componentIds",
          "type": "string[]"
        },
        {
          "internalType": "string",
          "name": "_image",
          "type": "string"
        },
        {
          "internalType": "string",
          "name": "_location",
          "type": "string"
        },
        {
          "internalType": "string",
          "name": "_timestamp",
          "type": "string"
        },
        {
          "internalType": "string",
          "name": "_metadataURI",
          "type": "string"
        }
      ],
      "name": "assembleWatch",
      "outputs": [],
      "stateMutability": "nonpayable",
      "type": "function"
    },
    {
      "inputs": [
        {
          "internalType": "address",
          "name": "owner",
          "type": "address"
        }
      ],
      "name": "balanceOf",
      "outputs": [
        {
          "internalType": "uint256",
          "name": "",
          "type": "uint256"
        }
      ],
      "stateMutability": "view",
      "type": "function"
    },
    {
      "inputs": [
        {
          "internalType": "string",
          "name": "_watchId",
          "type": "string"
        }
      ],
      "name": "canPurchaseWatch",
      "outputs": [
        {
          "internalType": "bool",
          "name": "",
          "type": "bool"
        }
      ],
      "stateMutability": "view",
      "type": "function"
    },
    {
      "inputs": [
        {
          "internalType": "string",
          "name": "_componentId",
          "type": "string"
        },
        {
          "internalType": "string",
          "name": "_remarks",
          "type": "string"
        },
        {
          "internalType": "string",
          "name": "_certifierImage",
          "type": "string"
        },
        {
          "internalType": "string",
          "name": "_timestamp",
          "type": "string"
        }
      ],
      "name": "certifyComponent",
      "outputs": [],
      "stateMutability": "nonpayable",
      "type": "function"
    },
    {
      "inputs": [
        {
          "internalType": "uint256",
          "name": "",
          "type": "uint256"
        }
      ],
      "name": "componentIds",
      "outputs": [
        {
          "internalType": "string",
          "name": "",
          "type": "string"
        }
      ],
      "stateMutability": "view",
      "type": "function"
    },
    {
      "inputs": [
        {
          "internalType": "string",
          "name": "",
          "type": "string"
        }
      ],
      "name": "components",
      "outputs": [
        {
          "internalType": "string",
          "name": "componentId",
          "type": "string"
        },
        {
          "internalType": "string",
          "name": "componentType",
          "type": "string"
        },
        {
          "internalType": "string",
          "name": "serialNumber",
          "type": "string"
        },
        {
          "internalType": "string",
          "name": "rawMaterialId",
          "type": "string"
        },
        {
          "internalType": "string",
          "name": "image",
          "type": "string"
        },
        {
          "internalType": "string",
          "name": "location",
          "type": "string"
        },
        {
          "internalType": "string",
          "name": "timestamp",
          "type": "string"
        },
        {
          "internalType": "address",
          "name": "manufacturer",
          "type": "address"
        },
        {
          "internalType": "enum LuxuryWatchNFT.ComponentStatus",
          "name": "status",
          "type": "uint8"
        },
        {
          "internalType": "string",
          "name": "certifierRemarks",
          "type": "string"
        },
        {
          "internalType": "string",
          "name": "certifierImage",
          "type": "string"
        },
        {
          "internalType": "address",
          "name": "certifier",
          "type": "address"
        },
        {
          "internalType": "string",
          "name": "certifyTimestamp",
          "type": "string"
        },
        {
          "internalType": "bool",
          "name": "exists",
          "type": "bool"
        }
      ],
      "stateMutability": "view",
      "type": "function"
    },
    {
      "inputs": [
        {
          "internalType": "string",
          "name": "_componentId",
          "type": "string"
        },
        {
          "internalType": "string",
          "name": "_componentType",
          "type": "string"
        },
        {
          "internalType": "string",
          "name": "_serialNumber",
          "type": "string"
        },
        {
          "internalType": "string",
          "name": "_rawMaterialId",
          "type": "string"
        },
        {
          "internalType": "string",
          "name": "_image",
          "type": "string"
        },
        {
          "internalType": "string",
          "name": "_location",
          "type": "string"
        },
        {
          "internalType": "string",
          "name": "_timestamp",
          "type": "string"
        }
      ],
      "name": "createComponent",
      "outputs": [],
      "stateMutability": "nonpayable",
      "type": "function"
    },
    {
      "inputs": [],
      "name": "getAllComponentIds",
      "outputs": [
        {
          "internalType": "string[]",
          "name": "",
          "type": "string[]"
        }
      ],
      "stateMutability": "view",
      "type": "function"
    },
    {
      "inputs": [],
      "name": "getAllRawMaterialIds",
      "outputs": [
        {
          "internalType": "string[]",
          "name": "",
          "type": "string[]"
        }
      ],
      "stateMutability": "view",
      "type": "function"
    },
    {
      "inputs": [],
      "name": "getAllWatchIds",
      "outputs": [
        {
          "internalType": "string[]",
          "name": "",
          "type": "string[]"
        }
      ],
      "stateMutability": "view",
      "type": "function"
    },
    {
      "inputs": [
        {
          "internalType": "uint256",
          "name": "tokenId",
          "type": "uint256"
        }
      ],
      "name": "getApproved",
      "outputs": [
        {
          "internalType": "address",
          "name": "",
          "type": "address"
        }
      ],
      "stateMutability": "view",
      "type": "function"
    },
    {
      "inputs": [],
      "name": "getAvailableWatches",
      "outputs": [
        {
          "internalType": "string[]",
          "name": "",
          "type": "string[]"
        }
      ],
      "stateMutability": "view",
      "type": "function"
    },
    {
      "inputs": [
        {
          "internalType": "string",
          "name": "_componentId",
          "type": "string"
        }
      ],
      "name": "getComponent",
      "outputs": [
        {
          "components": [
            {
              "internalType": "string",
              "name": "componentId",
              "type": "string"
            },
            {
              "internalType": "string",
              "name": "componentType",
              "type": "string"
            },
            {
              "internalType": "string",
              "name": "serialNumber",
              "type": "string"
            },
            {
              "internalType": "string",
              "name": "rawMaterialId",
              "type": "string"
            },
            {
              "internalType": "string",
              "name": "image",
              "type": "string"
            },
            {
              "internalType": "string",
              "name": "location",
              "type": "string"
            },
            {
              "internalType": "string",
              "name": "timestamp",
              "type": "string"
            },
            {
              "internalType": "address",
              "name": "manufacturer",
              "type": "address"
            },
            {
              "internalType": "enum LuxuryWatchNFT.ComponentStatus",
              "name": "status",
              "type": "uint8"
            },
            {
              "internalType": "string",
              "name": "certifierRemarks",
              "type": "string"
            },
            {
              "internalType": "string",
              "name": "certifierImage",
              "type": "string"
            },
            {
              "internalType": "address",
              "name": "certifier",
              "type": "address"
            },
            {
              "internalType": "string",
              "name": "certifyTimestamp",
              "type": "string"
            },
            {
              "internalType": "bool",
              "name": "exists",
              "type": "bool"
            }
          ],
          "internalType": "struct LuxuryWatchNFT.Component",
          "name": "",
          "type": "tuple"
        }
      ],
      "stateMutability": "view",
      "type": "function"
    },
    {
      "inputs": [
        {
          "internalType": "string",
          "name": "_watchId",
          "type": "string"
        }
      ],
      "name": "getOwnershipHistory",
      "outputs": [
        {
          "internalType": "address[]",
          "name": "",
          "type": "address[]"
        }
      ],
      "stateMutability": "view",
      "type": "function"
    },
    {
      "inputs": [
        {
          "internalType": "string",
          "name": "_componentId",
          "type": "string"
        }
      ],
      "name": "getRawMaterial",
      "outputs": [
        {
          "components": [
            {
              "internalType": "string",
              "name": "componentId",
              "type": "string"
            },
            {
              "internalType": "string",
              "name": "materialType",
              "type": "string"
            },
            {
              "internalType": "string",
              "name": "origin",
              "type": "string"
            },
            {
              "internalType": "string",
              "name": "image",
              "type": "string"
            },
            {
              "internalType": "string",
              "name": "location",
              "type": "string"
            },
            {
              "internalType": "string",
              "name": "timestamp",
              "type": "string"
            },
            {
              "internalType": "address",
              "name": "supplier",
              "type": "address"
            },
            {
              "internalType": "bool",
              "name": "exists",
              "type": "bool"
            },
            {
              "internalType": "bool",
              "name": "used",
              "type": "bool"
            }
          ],
          "internalType": "struct LuxuryWatchNFT.RawMaterial",
          "name": "",
          "type": "tuple"
        }
      ],
      "stateMutability": "view",
      "type": "function"
    },
    {
      "inputs": [
        {
          "internalType": "uint256",
          "name": "_tokenId",
          "type": "uint256"
        }
      ],
      "name": "getTokenWatchId",
      "outputs": [
        {
          "internalType": "string",
          "name": "",
          "type": "string"
        }
      ],
      "stateMutability": "view",
      "type": "function"
    },
    {
      "inputs": [
        {
          "internalType": "string",
          "name": "_watchId",
          "type": "string"
        }
      ],
      "name": "getWatch",
      "outputs": [
        {
          "components": [
            {
              "internalType": "string",
              "name": "watchId",
              "type": "string"
            },
            {
              "internalType": "string[]",
              "name": "componentIds",
              "type": "string[]"
            },
            {
              "internalType": "string",
              "name": "image",
              "type": "string"
            },
            {
              "internalType": "string",
              "name": "location",
              "type": "string"
            },
            {
              "internalType": "string",
              "name": "timestamp",
              "type": "string"
            },
            {
              "internalType": "address",
              "name": "assembler",
              "type": "address"
            },
            {
              "internalType": "enum LuxuryWatchNFT.ShippingStatus",
              "name": "shippingStatus",
              "type": "uint8"
            },
            {
              "internalType": "string[]",
              "name": "shippingTrail",
              "type": "string[]"
            },
            {
              "internalType": "bool",
              "name": "availableForSale",
              "type": "bool"
            },
            {
              "internalType": "address",
              "name": "retailer",
              "type": "address"
            },
            {
              "internalType": "uint256",
              "name": "retailPrice",
              "type": "uint256"
            },
            {
              "internalType": "bool",
              "name": "sold",
              "type": "bool"
            },
            {
              "internalType": "address",
              "name": "currentOwner",
              "type": "address"
            },
            {
              "internalType": "address[]",
              "name": "ownershipHistory",
              "type": "address[]"
            },
            {
              "internalType": "bool",
              "name": "exists",
              "type": "bool"
            },
            {
              "internalType": "uint256",
              "name": "tokenId",
              "type": "uint256"
            },
            {
              "internalType": "string",
              "name": "metadataURI",
              "type": "string"
            },
            {
              "internalType": "bool",
              "name": "isNFTMinted",
              "type": "bool"
            }
          ],
          "internalType": "struct LuxuryWatchNFT.Watch",
          "name": "",
          "type": "tuple"
        }
      ],
      "stateMutability": "view",
      "type": "function"
    },
    {
      "inputs": [
        {
          "internalType": "string",
          "name": "_watchId",
          "type": "string"
        }
      ],
      "name": "getWatchComponents",
      "outputs": [
        {
          "components": [
            {
              "internalType": "string",
              "name": "componentId",
              "type": "string"
            },
            {
              "internalType": "string",
              "name": "componentType",
              "type": "string"
            },
            {
              "internalType": "string",
              "name": "serialNumber",
              "type": "string"
            },
            {
              "internalType": "string",
              "name": "rawMaterialId",
              "type": "string"
            },
            {
              "internalType": "string",
              "name": "image",
              "type": "string"
            },
            {
              "internalType": "string",
              "name": "location",
              "type": "string"
            },
            {
              "internalType": "string",
              "name": "timestamp",
              "type": "string"
            },
            {
              "internalType": "address",
              "name": "manufacturer",
              "type": "address"
            },
            {
              "internalType": "enum LuxuryWatchNFT.ComponentStatus",
              "name": "status",
              "type": "uint8"
            },
            {
              "internalType": "string",
              "name": "certifierRemarks",
              "type": "string"
            },
            {
              "internalType": "string",
              "name": "certifierImage",
              "type": "string"
            },
            {
              "internalType": "address",
              "name": "certifier",
              "type": "address"
            },
            {
              "internalType": "string",
              "name": "certifyTimestamp",
              "type": "string"
            },
            {
              "internalType": "bool",
              "name": "exists",
              "type": "bool"
            }
          ],
          "internalType": "struct LuxuryWatchNFT.Component[]",
          "name": "",
          "type": "tuple[]"
        }
      ],
      "stateMutability": "view",
      "type": "function"
    },
    {
      "inputs": [
        {
          "internalType": "string",
          "name": "_watchId",
          "type": "string"
        }
      ],
      "name": "getWatchNFTInfo",
      "outputs": [
        {
          "internalType": "uint256",
          "name": "tokenId",
          "type": "uint256"
        },
        {
          "internalType": "string",
          "name": "metadataURI",
          "type": "string"
        },
        {
          "internalType": "bool",
          "name": "isNFTMinted",
          "type": "bool"
        },
        {
          "internalType": "address",
          "name": "nftOwner",
          "type": "address"
        }
      ],
      "stateMutability": "view",
      "type": "function"
    },
    {
      "inputs": [
        {
          "internalType": "string",
          "name": "_watchId",
          "type": "string"
        }
      ],
      "name": "getWatchTokenId",
      "outputs": [
        {
          "internalType": "uint256",
          "name": "",
          "type": "uint256"
        }
      ],
      "stateMutability": "view",
      "type": "function"
    },
    {
      "inputs": [
        {
          "internalType": "address",
          "name": "_owner",
          "type": "address"
        }
      ],
      "name": "getWatchesByOwner",
      "outputs": [
        {
          "internalType": "string[]",
          "name": "",
          "type": "string[]"
        }
      ],
      "stateMutability": "view",
      "type": "function"
    },
    {
      "inputs": [
        {
          "internalType": "address",
          "name": "owner",
          "type": "address"
        },
        {
          "internalType": "address",
          "name": "operator",
          "type": "address"
        }
      ],
      "name": "isApprovedForAll",
      "outputs": [
        {
          "internalType": "bool",
          "name": "",
          "type": "bool"
        }
      ],
      "stateMutability": "view",
      "type": "function"
    },
    {
      "inputs": [
        {
          "internalType": "string",
          "name": "_watchId",
          "type": "string"
        },
        {
          "internalType": "uint256",
          "name": "_retailPrice",
          "type": "uint256"
        }
      ],
      "name": "markAvailableForSale",
      "outputs": [],
      "stateMutability": "nonpayable",
      "type": "function"
    },
    {
      "inputs": [],
      "name": "name",
      "outputs": [
        {
          "internalType": "string",
          "name": "",
          "type": "string"
        }
      ],
      "stateMutability": "view",
      "type": "function"
    },
    {
      "inputs": [],
      "name": "owner",
      "outputs": [
        {
          "internalType": "address",
          "name": "",
          "type": "address"
        }
      ],
      "stateMutability": "view",
      "type": "function"
    },
    {
      "inputs": [
        {
          "internalType": "uint256",
          "name": "tokenId",
          "type": "uint256"
        }
      ],
      "name": "ownerOf",
      "outputs": [
        {
          "internalType": "address",
          "name": "",
          "type": "address"
        }
      ],
      "stateMutability": "view",
      "type": "function"
    },
    {
      "inputs": [
        {
          "internalType": "string",
          "name": "_watchId",
          "type": "string"
        }
      ],
      "name": "purchaseWatch",
      "outputs": [],
      "stateMutability": "nonpayable",
      "type": "function"
    },
    {
      "inputs": [
        {
          "internalType": "uint256",
          "name": "",
          "type": "uint256"
        }
      ],
      "name": "rawMaterialIds",
      "outputs": [
        {
          "internalType": "string",
          "name": "",
          "type": "string"
        }
      ],
      "stateMutability": "view",
      "type": "function"
    },
    {
      "inputs": [
        {
          "internalType": "string",
          "name": "",
          "type": "string"
        }
      ],
      "name": "rawMaterials",
      "outputs": [
        {
          "internalType": "string",
          "name": "componentId",
          "type": "string"
        },
        {
          "internalType": "string",
          "name": "materialType",
          "type": "string"
        },
        {
          "internalType": "string",
          "name": "origin",
          "type": "string"
        },
        {
          "internalType": "string",
          "name": "image",
          "type": "string"
        },
        {
          "internalType": "string",
          "name": "location",
          "type": "string"
        },
        {
          "internalType": "string",
          "name": "timestamp",
          "type": "string"
        },
        {
          "internalType": "address",
          "name": "supplier",
          "type": "address"
        },
        {
          "internalType": "bool",
          "name": "exists",
          "type": "bool"
        },
        {
          "internalType": "bool",
          "name": "used",
          "type": "bool"
        }
      ],
      "stateMutability": "view",
      "type": "function"
    },
    {
      "inputs": [
        {
          "internalType": "string",
          "name": "_componentId",
          "type": "string"
        },
        {
          "internalType": "string",
          "name": "_materialType",
          "type": "string"
        },
        {
          "internalType": "string",
          "name": "_origin",
          "type": "string"
        },
        {
          "internalType": "string",
          "name": "_image",
          "type": "string"
        },
        {
          "internalType": "string",
          "name": "_location",
          "type": "string"
        },
        {
          "internalType": "string",
          "name": "_timestamp",
          "type": "string"
        }
      ],
      "name": "registerRawMaterial",
      "outputs": [],
      "stateMutability": "nonpayable",
      "type": "function"
    },
    {
      "inputs": [],
      "name": "renounceOwnership",
      "outputs": [],
      "stateMutability": "nonpayable",
      "type": "function"
    },
    {
      "inputs": [
        {
          "internalType": "address",
          "name": "from",
          "type": "address"
        },
        {
          "internalType": "address",
          "name": "to",
          "type": "address"
        },
        {
          "internalType": "uint256",
          "name": "tokenId",
          "type": "uint256"
        }
      ],
      "name": "safeTransferFrom",
      "outputs": [],
      "stateMutability": "nonpayable",
      "type": "function"
    },
    {
      "inputs": [
        {
          "internalType": "address",
          "name": "from",
          "type": "address"
        },
        {
          "internalType": "address",
          "name": "to",
          "type": "address"
        },
        {
          "internalType": "uint256",
          "name": "tokenId",
          "type": "uint256"
        },
        {
          "internalType": "bytes",
          "name": "data",
          "type": "bytes"
        }
      ],
      "name": "safeTransferFrom",
      "outputs": [],
      "stateMutability": "nonpayable",
      "type": "function"
    },
    {
      "inputs": [
        {
          "internalType": "address",
          "name": "operator",
          "type": "address"
        },
        {
          "internalType": "bool",
          "name": "approved",
          "type": "bool"
        }
      ],
      "name": "setApprovalForAll",
      "outputs": [],
      "stateMutability": "nonpayable",
      "type": "function"
    },
    {
      "inputs": [
        {
          "internalType": "bytes4",
          "name": "interfaceId",
          "type": "bytes4"
        }
      ],
      "name": "supportsInterface",
      "outputs": [
        {
          "internalType": "bool",
          "name": "",
          "type": "bool"
        }
      ],
      "stateMutability": "view",
      "type": "function"
    },
    {
      "inputs": [],
      "name": "symbol",
      "outputs": [
        {
          "internalType": "string",
          "name": "",
          "type": "string"
        }
      ],
      "stateMutability": "view",
      "type": "function"
    },
    {
      "inputs": [
        {
          "internalType": "uint256",
          "name": "",
          "type": "uint256"
        }
      ],
      "name": "tokenIdToWatchId",
      "outputs": [
        {
          "internalType": "string",
          "name": "",
          "type": "string"
        }
      ],
      "stateMutability": "view",
      "type": "function"
    },
    {
      "inputs": [
        {
          "internalType": "uint256",
          "name": "tokenId",
          "type": "uint256"
        }
      ],
      "name": "tokenURI",
      "outputs": [
        {
          "internalType": "string",
          "name": "",
          "type": "string"
        }
      ],
      "stateMutability": "view",
      "type": "function"
    },
    {
      "inputs": [],
      "name": "totalNFTsMinted",
      "outputs": [
        {
          "internalType": "uint256",
          "name": "",
          "type": "uint256"
        }
      ],
      "stateMutability": "view",
      "type": "function"
    },
    {
      "inputs": [
        {
          "internalType": "address",
          "name": "from",
          "type": "address"
        },
        {
          "internalType": "address",
          "name": "to",
          "type": "address"
        },
        {
          "internalType": "uint256",
          "name": "tokenId",
          "type": "uint256"
        }
      ],
      "name": "transferFrom",
      "outputs": [],
      "stateMutability": "nonpayable",
      "type": "function"
    },
    {
      "inputs": [
        {
          "internalType": "string",
          "name": "_watchId",
          "type": "string"
        },
        {
          "internalType": "address",
          "name": "_newOwner",
          "type": "address"
        }
      ],
      "name": "transferOwnership",
      "outputs": [],
      "stateMutability": "nonpayable",
      "type": "function"
    },
    {
      "inputs": [
        {
          "internalType": "address",
          "name": "newOwner",
          "type": "address"
        }
      ],
      "name": "transferOwnership",
      "outputs": [],
      "stateMutability": "nonpayable",
      "type": "function"
    },
    {
      "inputs": [
        {
          "internalType": "string",
          "name": "_watchId",
          "type": "string"
        },
        {
          "internalType": "string",
          "name": "_newMetadataURI",
          "type": "string"
        },
        {
          "internalType": "string",
          "name": "_updateReason",
          "type": "string"
        }
      ],
      "name": "updateNFTMetadata",
      "outputs": [],
      "stateMutability": "nonpayable",
      "type": "function"
    },
    {
      "inputs": [
        {
          "internalType": "string",
          "name": "_watchId",
          "type": "string"
        },
        {
          "internalType": "uint256",
          "name": "_status",
          "type": "uint256"
        },
        {
          "internalType": "string",
          "name": "_location",
          "type": "string"
        },
        {
          "internalType": "string",
          "name": "_timestamp",
          "type": "string"
        }
      ],
      "name": "updateShippingStatus",
      "outputs": [],
      "stateMutability": "nonpayable",
      "type": "function"
    },
    {
      "inputs": [
        {
          "internalType": "string",
          "name": "",
          "type": "string"
        }
      ],
      "name": "watchIdToTokenId",
      "outputs": [
        {
          "internalType": "uint256",
          "name": "",
          "type": "uint256"
        }
      ],
      "stateMutability": "view",
      "type": "function"
    },
    {
      "inputs": [
        {
          "internalType": "uint256",
          "name": "",
          "type": "uint256"
        }
      ],
      "name": "watchIds",
      "outputs": [
        {
          "internalType": "string",
          "name": "",
          "type": "string"
        }
      ],
      "stateMutability": "view",
      "type": "function"
    },
    {
      "inputs": [
        {
          "internalType": "string",
          "name": "",
          "type": "string"
        }
      ],
      "name": "watchNFTMinted",
      "outputs": [
        {
          "internalType": "bool",
          "name": "",
          "type": "bool"
        }
      ],
      "stateMutability": "view",
      "type": "function"
    },
    {
      "inputs": [
        {
          "internalType": "string",
          "name": "",
          "type": "string"
        }
      ],
      "name": "watches",
      "outputs": [
        {
          "internalType": "string",
          "name": "watchId",
          "type": "string"
        },
        {
          "internalType": "string",
          "name": "image",
          "type": "string"
        },
        {
          "internalType": "string",
          "name": "location",
          "type": "string"
        },
        {
          "internalType": "string",
          "name": "timestamp",
          "type": "string"
        },
        {
          "internalType": "address",
          "name": "assembler",
          "type": "address"
        },
        {
          "internalType": "enum LuxuryWatchNFT.ShippingStatus",
          "name": "shippingStatus",
          "type": "uint8"
        },
        {
          "internalType": "bool",
          "name": "availableForSale",
          "type": "bool"
        },
        {
          "internalType": "address",
          "name": "retailer",
          "type": "address"
        },
        {
          "internalType": "uint256",
          "name": "retailPrice",
          "type": "uint256"
        },
        {
          "internalType": "bool",
          "name": "sold",
          "type": "bool"
        },
        {
          "internalType": "address",
          "name": "currentOwner",
          "type": "address"
        },
        {
          "internalType": "bool",
          "name": "exists",
          "type": "bool"
        },
        {
          "internalType": "uint256",
          "name": "tokenId",
          "type": "uint256"
        },
        {
          "internalType": "string",
          "name": "metadataURI",
          "type": "string"
        },
        {
          "internalType": "bool",
          "name": "isNFTMinted",
          "type": "bool"
        }
      ],
      "stateMutability": "view",
      "type": "function"
    }
  ],
  "bytecode": "0x60803462000365576001600160401b0390604090808201838111828210176200034f578252600d81526020916c131d5e1d5c9e55d85d18da1395609a1b83830152805193818501858110828211176200034f57825260048552634c55585760e01b8486015282518181116200034f576000948554916001958684811c9416801562000344575b8385101462000330578190601f94858111620002dd575b508390858311600114620002795789926200026d575b5050600019600383901b1c191690861b1786555b8651928311620002595784548581811c911680156200024e575b828210146200023a57828111620001f2575b5080918311600114620001895750849582939495926200017d575b5050600019600383901b1c191690831b1782555b60078054336001600160a01b03198216811790925591519390916001600160a01b0316907f8be0079c531659141344cd1fd0a4f28419497f9722a3daafe3b4186f6b6457e09080a360085401600855615ca690816200036b8239f35b0151905038806200010d565b90601f198316968587528287209287905b898210620001da5750508386979896959610620001c0575b505050811b01825562000121565b015160001960f88460031b161c19169055388080620001b2565b8088859682949686015181550195019301906200019a565b8587528187208380860160051c82019284871062000230575b0160051c019086905b82811062000224575050620000f2565b88815501869062000214565b925081926200020b565b634e487b7160e01b87526022600452602487fd5b90607f1690620000e0565b634e487b7160e01b86526041600452602486fd5b015190503880620000b2565b898052848a208994509190601f1984168b5b87828210620002c65750508411620002ac575b505050811b018655620000c6565b015160001960f88460031b161c191690553880806200029e565b8385015186558c979095019493840193016200028b565b9091508880528389208580850160051c82019286861062000326575b918a91869594930160051c01915b828110620003175750506200009c565b8b81558594508a910162000307565b92508192620002f9565b634e487b7160e01b88526022600452602488fd5b93607f169362000085565b634e487b7160e01b600052604160045260246000fd5b600080fdfe6080604052600436101561001257600080fd5b60003560e01c8062c966be14613db757806301ffc9a714613d2f57806306fdde0314613c8c578063072bd64514613c3e57806307f72e5e14613839578063081812fc1461381b578063095ea7b3146136a15780630d2521e51461360a5780630e58ba33146134315780630f0f9e7b1461339a57806323b872dd1461337b5780632c49abf1146131ec5780633a646480146131a857806342842e0e146131755780634eb7e95f1461315757806354b26df814612f105780635f750aa114612e795780636352211e14612e49578063685f883114612de557806370a0823114612d4e578063715018a614612cf1578063742aaa7914612a57578063839292f7146128ad57806384d969bd146127285780638730cc13146126d7578063885ea8971461268657806389edfe49146121c55780638da5cb5b1461219c57806395d89b41146120d1578063a07c2a31146120a5578063a22cb46514611fca578063a5a2e42114611cb4578063a89641d114611bd5578063b42422ad14611815578063b6f6a99f1461150d578063b75b2e32146114c4578063b88d4fde1461143f578063babe2f4214611300578063c0e793c2146110cb578063c42d6d5314610fd0578063c719c4a414610d35578063c85b4a8214610c7f578063c87b56dd14610c0d578063d34814bd146109f6578063d98e35b914610677578063df44264714610626578063e1963b13146103f8578063e3f542e114610360578063e985e9c51461030a5763f2fde38b1461024157600080fd5b346103055760203660031901126103055761025a613ff5565b6102626143ae565b6001600160a01b039081169081156102b157600754826001600160601b0360a01b821617600755167f8be0079c531659141344cd1fd0a4f28419497f9722a3daafe3b4186f6b6457e0600080a3005b60405162461bcd60e51b815260206004820152602660248201527f4f776e61626c653a206e6577206f776e657220697320746865207a65726f206160448201526564647265737360d01b6064820152608490fd5b600080fd5b3461030557604036600319011261030557610323613ff5565b61032b61400b565b9060018060a01b03809116600052600560205260406000209116600052602052602060ff604060002054166040519015158152f35b34610305576020366003190112610305576004356000818152600260205260409020546001600160a01b0316156103c157600052600a6020526103bd6103a960406000206140b7565b604051918291602083526020830190613faa565b0390f35b60405162461bcd60e51b815260206004820152600f60248201526e151bdad95b881b9bdd08199bdd5b99608a1b6044820152606490fd5b34610305576020366003190112610305576004356001600160401b03811161030557602061042d6104b6923690600401613f69565b600061010060405161043e81613ea4565b606081526060858201526060604082015260608082015260606080820152606060a08201528260c08201528260e08201520152604051906104a560ff600683519486818187019761049081838b613f87565b8101600c815203019020015460a01c16615930565b604051938492839251928391613f87565b8101600c81520301902060ff6006604051926104d184613ea4565b6104da816140b7565b84526104e8600182016140b7565b60208501526104f9600282016140b7565b604085015261050a600382016140b7565b606085015261051b600482016140b7565b608085015261052c600582016140b7565b60a0850152015460018060a01b03811660c0840152818160a01c16151560e084015260a81c16151561010082015260405180916020825280516101006105f961058361012093846020880152610140870190613faa565b6105e46105d06105bc6105a8602089015194601f1995868c83030160408d0152613faa565b6040890151858b83030160608c0152613faa565b6060880151848a83030160808b0152613faa565b6080870151838983030160a08a0152613faa565b9060a0860151908783030160c0880152613faa565b60c08401516001600160a01b031660e0868101919091528401511515828601529201511515908301520390f35b3461030557602036600319011261030557600435600f54811015610305576103a96103bd91600f6000527f8d1108e10bcb7c27dddfc02ed9d693a074039d026cf4ea4240b40f7d581ac802016140b7565b34610305576000366003190112610305576011546000805b82811061087357506106a090615a62565b906000805b8281106106c257604051602080825281906103bd90820187614021565b6106d46106ce826142c8565b506159cf565b6040516106e081613e88565b6106e9826140b7565b81526106f760018301615883565b6020820152610708600283016140b7565b6040820152610719600383016140b7565b606082015261072a600483016140b7565b608082015260058201549160018060a01b039161075960a08486168184015260ff9586911c1660c08301614e09565b61076560068301615883565b60e0820152610220600783015494600e6101008401948288161515865286600898891c1661012086015287810154966101408601978852600982015461016087019985821615158b521c166101808601526107c2600a82016158d8565b6101a086015282600b8201541615156101c0860152600c8101546101e08601526107ee600d82016140b7565b61020086015201541615159101525115159182610869575b508161085e575b50610821575b61081c90614dd0565b6106a5565b9061085661081c9161083b610835856142c8565b506140b7565b6108458288614df5565b526108508187614df5565b50614dd0565b919050610813565b90505115158561080d565b5115915086610806565b61087f6106ce826142c8565b60405161088b81613e88565b610894826140b7565b81526108a260018301615883565b60208201526108b3600283016140b7565b60408201526108c4600383016140b7565b60608201526108d5600483016140b7565b608082015260058201549160018060a01b039161090460a08486168184015260ff9586911c1660c08301614e09565b61091060068301615883565b60e0820152610220600783015494600e6101008401948288161515865286600898891c1661012086015287810154966101408601978852600982015461016087019985821615158b521c1661018086015261096d600a82016158d8565b6101a086015282600b8201541615156101c0860152600c8101546101e0860152610999600d82016140b7565b610200860152015416151591015251151591826109ec575b50816109e1575b506109cc575b6109c790614dd0565b61068f565b906109d96109c791614dd0565b9190506109be565b9050511515846109b8565b51159150856109b1565b3461030557602080600319360112610305576004356001600160401b03811161030557610a27903690600401613f69565b610a5f82604051928051906104a583820192610a44818886613f87565b8601600e8152600b878660ff998a9403019020015416615804565b8101600e8152030190209060405190610a7782613e88565b610a80836140b7565b8252610a8e60018401615883565b84830152610a9e600284016140b7565b6040830152610aaf600384016140b7565b6060830152610ac0600484016140b7565b6080830152600583015490610aec8160018060a01b039384811660a087015260a01c1660c08501614e09565b610af860068501615883565b60e0840152816007850154828116151561010086015260081c166101208401526008840154610140840152816009850154828116151561016086015260081c16610180840152610b4a600a85016158d8565b6101a084015280600b8501541615156101c0840152610220600c850154916101e08501928352600e610b7e600d88016140b7565b96610200870197885201541693019215159081845260009180610beb575b610bd4575b610bc4905194519351151593608060405197889788528701526080860190613faa565b9260408501521660608301520390f35b9050610bc4610be38251614452565b919050610ba1565b5080516000908152600260205260409020546001600160a01b03161515610b9c565b3461030557602036600319011261030557600435600081815260026020526040902054610c44906001600160a01b03161515614406565b60005260066020526103bd610c5c60406000206140b7565b6000604051610c6a81613edb565b52604051918291602083526020830190613faa565b346103055760c0366003190112610305576001600160401b0360043581811161030557610cb0903690600401613f69565b60243582811161030557610cc890369060040161432e565b60443583811161030557610ce0903690600401613f69565b60643584811161030557610cf8903690600401613f69565b9060843585811161030557610d11903690600401613f69565b9260a43595861161030557610d2d610d33963690600401613f69565b94614e39565b005b3461030557602080600319360112610305576004356001600160401b03811161030557610d66903690600401613f69565b604051815190610d9960ff600b86860194610d82818688613f87565b8401938781600e9687815203019020015416615804565b60ff600760405186818751610daf81838a613f87565b81018681520301902001541615610f9b5760ff600960405186818751610dd681838a613f87565b810186815203019020015416610f6757600960405185818651610dfa818389613f87565b81018581520301902001546001600160a01b03929060081c83163314610f34579360087fa925bf7ae7471bc84df0cb4b5308787cf886f853747cdcc5d852c640123271d59260ff610e78847f6840904f5b31827f74e1497360da245f56e530c8c3de3163a2d31f11493273c699604051809381928c51928391613f87565b8101858152030190206009810180546007830180548519908116909155610100600160a81b0319908216600117163360081b610100600160a81b031617909155841c9096169591610ecc33600a8501614a04565b82015416610f18575b015460405191829160808352610eee6080840188613faa565b91339084015285604084015260608301520390a1610f13604051928392339184614a44565b0390a1005b610f2f600c82015433610f2a82614452565b614654565b610ed5565b60405162461bcd60e51b815260048101869052600b60248201526a20b63932b0b23c9037bbb760a91b6044820152606490fd5b60405162461bcd60e51b815260048101859052600c60248201526b105b1c9958591e481cdbdb1960a21b6044820152606490fd5b60405162461bcd60e51b815260048101859052600d60248201526c4e6f7420617661696c61626c6560981b6044820152606490fd5b3461030557602036600319011261030557610fe9613ff5565b6011546001600160a01b03918216916000805b83811061108c575061100d90615a62565b9260009160005b84811061103157604051602080825281906103bd90820189614021565b828260096110416106ce856142c8565b015460081c161461105b575b61105690614dd0565b611014565b926110846110569161106f610835876142c8565b611079828a614df5565b526108508189614df5565b93905061104d565b8483600961109c6106ce856142c8565b015460081c16146110b6575b6110b190614dd0565b610ffc565b906110c36110b191614dd0565b9190506110a8565b34610305576040366003190112610305576004356001600160401b038111610305576110fb903690600401613f69565b61110361400b565b6040519180519161113760ff600b60209687818188019861112581838c613f87565b8101600e815203019020015416615804565b60096040518581855161114b81838a613f87565b8101600e81520301902001549260018060a01b039384339160081c16036112cf5783821680151590816112c4575b501561128d5760ff600960405187818751611195818389613f87565b8101600e8152030190200154161561125857906111e27f6840904f5b31827f74e1497360da245f56e530c8c3de3163a2d31f11493273c695610f1393604051809381928851928391613f87565b600e90820190815203019020600981018054610100600160a81b03198116600885811b610100600160a81b031691909117909255901c9094169361122982600a8301614a04565b60ff600e82015416611243575b5060405193849384614a44565b600c6112529101548233614654565b85611236565b60405162461bcd60e51b815260048101869052600d60248201526c139bdd081c1d5c98da185cd959609a1b6044820152606490fd5b60405162461bcd60e51b815260048101869052600f60248201526e496e76616c6964206164647265737360881b6044820152606490fd5b905033141586611179565b60405162461bcd60e51b81526004810186905260096024820152682737ba1037bbb732b960b91b6044820152606490fd5b34610305576020366003190112610305576004356001600160401b0381116103055761134b60206113386113c9933690600401613f69565b8160405193828580945193849201613f87565b8101600c81520301902061135e816140b7565b9060ff61140f611370600184016140b7565b92611401611380600283016140b7565b6113f361138f600385016140b7565b6113e561139e600487016140b7565b936113d760066113b060058a016140b7565b9801549a6040519d8e9d8e610120908181520190613faa565b8d810360208f015290613faa565b908b820360408d0152613faa565b9089820360608b0152613faa565b908782036080890152613faa565b9085820360a0870152613faa565b6001600160a01b03831660c085015260a083901c8216151560e085015260a89290921c1615156101008301520390f35b3461030557608036600319011261030557611458613ff5565b61146061400b565b90606435906044356001600160401b038311610305573660238401121561030557610d339361149c6114bf943690602481600401359101613f32565b926114af6114aa843361458c565b6144b3565b6114ba838383614654565b614979565b614568565b34610305576020366003190112610305576004356001600160401b038111610305576114fa602061133881933690600401613f69565b8101600981520301902054604051908152f35b346103055760c0366003190112610305576001600160401b036004358181116103055761153e903690600401613f69565b60243582811161030557611556903690600401613f69565b906044358381116103055761156f903690600401613f69565b9260643581811161030557611588903690600401613f69565b90608435818111610305576115a1903690600401613f69565b9060a435908111610305576115ba903690600401613f69565b906040519084519260ff60066020948581818b01986115da81838c613f87565b8101600c815203019020015460a01c166117df578551156117a5576040519161160283613ea4565b86835283830195888752604084018a8152606085019182526080850192835260a0850193845260c085019733895260e086019760018952610100870197600089528b6040518093819251809261165792613f87565b8101600c815203019020955161166d9087614b4b565b5161167b9060018701614b4b565b516116899060028601614b4b565b516116979060038501614b4b565b516116a59060048401614b4b565b516116b39060058301614b4b565b92516006939093018054925191516001600160b01b03199093166001600160a01b03949094169390931790151560a01b60ff60a01b161790151560a81b60ff60a81b16179055600f54600160401b81101561178f576001810180600f55811015611779577f527c296d9e5ca97b6169c4c35780105d115cce1e59a12f70b0274e8b1dec3c879361176d83610f1393600f6000527f8d1108e10bcb7c27dddfc02ed9d693a074039d026cf4ea4240b40f7d581ac80201614b4b565b60405193849384614d0e565b634e487b7160e01b600052603260045260246000fd5b634e487b7160e01b600052604160045260246000fd5b60405162461bcd60e51b8152600481018490526012602482015271115b5c1d1e4818dbdb5c1bdb995b9d08125160721b6044820152606490fd5b60405162461bcd60e51b815260048101849052600e60248201526d416c72656164792065786973747360901b6044820152606490fd5b34610305576020366003190112610305576004356001600160401b03811161030557602061184a6118fe923690600401613f69565b600061022060405161185b81613e88565b6060815260608582015260606040820152606080820152606060808201528260a08201528260c0820152606060e0820152826101008201528261012082015282610140820152826101608201528261018082015260606101a0820152826101c0820152826101e08201526060610200820152015261133860ff600b604051858186516118ea8183858b01613f87565b600e81830152810103019020015416615930565b8101600e81520301902060ff600e6040519261191984613e88565b611922816140b7565b845261193060018201615883565b6020850152611941600282016140b7565b6040850152611952600382016140b7565b6060850152611963600482016140b7565b608085015261198c83600583015460018060a01b03811660a088015260a01c1660c08601614e09565b61199860068201615883565b60e0850152600781015483811615156101008601526001600160a01b03600891821c8116610120870152818301546101408701526009830154808616151561016088015290911c166101808501526119f2600a82016158d8565b6101a085015282600b8201541615156101c0850152600c8101546101e0850152611a1e600d82016140b7565b610200850152015416151561022082015260405160208152611af0611ab5611a9f611a89611a73611a5d87516102406020890152610260880190613faa565b6020880151878203601f19016040890152614021565b6040870151868203601f19016060880152613faa565b6060860151858203601f19016080870152613faa565b6080850151848203601f190160a0860152613faa565b60018060a01b0360a08501511660c0840152611ad960c085015160e085019061419f565b60e0840151838203601f1901610100850152614021565b91610100810151151561012083015260018060a01b0361012082015116610140830152610140810151610160830152610160810151151561018083015260018060a01b03610180820151166101a08301526101a081015192601f19838203016101c08401526020808551928381520194019060005b818110611bb657505050610220611ba783946101c084015115156101e08601526101e0840151610200860152610200840151601f198683030184870152613faa565b91015115156102408301520390f35b82516001600160a01b0316865260209586019590920191600101611b65565b346103055760a0366003190112610305576001600160401b0360043581811161030557611c06903690600401613f69565b60243582811161030557611c1e90369060040161432e565b60443583811161030557611c36903690600401613f69565b60643584811161030557611c4e903690600401613f69565b9060843594851161030557611c6a610d33953690600401613f69565b92604051946e697066733a2f2f64656661756c742f60881b6020870152611caf602f878351611c9f8184840160208801613f87565b810103600f810189520187613ef6565b614e39565b34610305576040366003190112610305576004356001600160401b03811161030557611ce4903690600401613f69565b60243590604051918151611d0960ff600b60209687818189019661112581838a613f87565b60ff600560405186818751611d1f818389613f87565b8101600e815203019020015460a01c16906004821015611fb4576003809203611f7f5760ff600760405187818851611d58818389613f87565b8101600e815203019020015416611f46578215611f115784611d8591604051809381928851928391613f87565b600e908201908152030190206007810180546001600160a81b0319163360081b610100600160a81b03161760019081179091559091908360088401556000906000600a8501938454915b828110611eb1575b5050505091611e569493917f72aeb2ddfa8dab032290a2147b3c4f6d7c97f5291957cce8b5c33625b8c19d94969315611ea0575b50600981018054610100600160a81b0319163360081b610100600160a81b031617905560ff600e8201541680611e7e575b611e66575b50604051938493606085526060850190613faa565b91339084015260408301520390a1005b600c611e7891015433610f2a82614452565b85611e41565b50600c81015433906001600160a01b0390611e9890614452565b161415611e3c565b611eab903390614a04565b86611e0b565b611ebb81876142ff565b905490831b1c6001600160a01b03163314611ede57611ed990614dd0565b611dcf565b509192508391507f72aeb2ddfa8dab032290a2147b3c4f6d7c97f5291957cce8b5c33625b8c19d949050611e5689611dd7565b60405162461bcd60e51b815260048101869052600d60248201526c496e76616c696420707269636560981b6044820152606490fd5b60405162461bcd60e51b8152600481018690526011602482015270416c726561647920617661696c61626c6560781b6044820152606490fd5b60405162461bcd60e51b815260048101869052600d60248201526c139bdd0819195b1a5d995c9959609a1b6044820152606490fd5b634e487b7160e01b600052602160045260246000fd5b3461030557604036600319011261030557611fe3613ff5565b6024359081151590818303610305576001600160a01b031691338314612060576120329033600052600560205260406000208460005260205260406000209060ff801983541691151516179055565b6040519081527f17307eab39ab6107e8899845ad3d59bd9653f200f220920489ca2b5937696c3160203392a3005b60405162461bcd60e51b815260206004820152601960248201527f4552433732313a20617070726f766520746f2063616c6c6572000000000000006044820152606490fd5b3461030557602036600319011261030557600435600052600a6020526103bd6103a960406000206140b7565b3461030557600036600319011261030557604051600060018054906120f58261407d565b80855291818116908115612175575060011461211c575b6103bd846103a981860382613ef6565b600081815292507fb10e2d527612073b26eecdfd717e6a320cf44b4afac2b0732d9fcbe2b7fa0cf65b82841061215d5750505081016020016103a98261210c565b80546020858701810191909152909301928101612145565b60ff191660208087019190915292151560051b850190920192506103a9915083905061210c565b34610305576000366003190112610305576007546040516001600160a01b039091168152602090f35b346103055760e0366003190112610305576001600160401b03600435818111610305576121f6903690600401613f69565b602490813583811161030557612210903690600401613f69565b9160443584811161030557612229903690600401613f69565b60643585811161030557612241903690600401613f69565b946084358181116103055761225a903690600401613f69565b9060a43581811161030557612273903690600401613f69565b9060c4359081116103055761228c903690600401613f69565b918760ff60066040516020818186519601956122a9818389613f87565b8101600c815203019020015460a01c16156126495760ff60066040516020818d516122d5818389613f87565b8101600c815203019020015460a81c166126115760ff600c604051602081816123048d83815193849201613f87565b8101600d8152030190200154166125da5761232f60206006928b604051938492839251928391613f87565b600c9082019081520301902001805460ff60a81b1916600160a81b1790556040519361235a85613e6c565b8685528760208601526040850152876060850152608084015260a083015260c08201523360e0820152600061010082015260405161239781613edb565b600081526101208201526040516123ad81613edb565b6000815261014082015260006101608201526040516123cb81613edb565b6000815261018082015260016101a082015260405160208185516123f28183858a01613f87565b8101600d81520301902090612408815183614b4b565b612419602082015160018401614b4b565b61242a604082015160028401614b4b565b61243b606082015160038401614b4b565b61244c608082015160048401614b4b565b61245d60a082015160058401614b4b565b61246e60c082015160068401614b4b565b60e08101516007830180546101008401516001600160a01b039384169060038110156125c5576001600160a81b03199092161760a09190911b60ff60a01b161790556101208201516125279392600c926101a0926124cf9060088701614b4b565b6124e161014083015160098701614b4b565b600a850190610160830151166001600160601b0360a01b825416179055612510610180820151600b8601614b4b565b0151151591019060ff801983541691151516179055565b60105490600160401b8210156125b157600182018060105582101561259d57507f37f3c897daa17830ff9f26195af76212a016bdb1a8cef7168943c617b0b5173e9361176d83610f139360106000527f1b6847dc741a1b0cd08d278845f9d819d87b734759afb55fe2de5cb82a9ae67201614b4b565b634e487b7160e01b60009081526032600452fd5b634e487b7160e01b60009081526041600452fd5b87634e487b7160e01b60005260216004526000fd5b60405162461bcd60e51b8152602060048201526010818801526f436f6d706f6e656e742065786973747360801b6044820152606490fd5b60405162461bcd60e51b8152602060048201526011818801527014985dc81b585d195c9a585b081d5cd959607a1b6044820152606490fd5b60405162461bcd60e51b8152602060048201526016818801527514985dc81b585d195c9a585b081b9bdd08199bdd5b9960521b6044820152606490fd5b3461030557602036600319011261030557600435601154811015610305576103a96103bd9160116000527f31ecc21a745e3968a04e9570e4425bc18fa8019c68028196b546d1669c200c68016140b7565b3461030557602036600319011261030557600435601054811015610305576103a96103bd9160106000527f1b6847dc741a1b0cd08d278845f9d819d87b734759afb55fe2de5cb82a9ae672016140b7565b3461030557602080600319360112610305576004356001600160401b038111610305578161275d612797923690600401613f69565b612765615968565b50604051906104a560ff600c83519486818187019761278581838b613f87565b8101600d815203019020015416615930565b8101600d8152030190209060ff600c604051936127b385613e6c565b6127bc816140b7565b85526127ca600182016140b7565b848601526127da600282016140b7565b60408601526127eb600382016140b7565b60608601526127fc600482016140b7565b608086015261280d600582016140b7565b60a086015261281e600682016140b7565b60c086015260078101546001600160a01b0380821660e08801529061284c9060a01c85166101008801614d45565b612858600883016140b7565b61012087015261286a600983016140b7565b610140870152600a82015416610160860152612888600b82016140b7565b61018086015201541615156101a08301526103bd6040519282849384528301906141ac565b34610305576080366003190112610305576001600160401b03600435818111610305576128de903690600401613f69565b602435828111610305576128f6903690600401613f69565b906044358381116103055761290f903690600401613f69565b9260643590811161030557612928903690600401613f69565b926040519261295b60ff600c8551966020818189019961294981838d613f87565b8101600d815203019020015416614d51565b60ff6007604051602081875161297281838c613f87565b8101600d815203019020015460a01c166003811015611fb4577f229c3e75999dc239993a7d89d8ca0bac7eaa10df9f9d29787a8fb48b6c68fbfc95600b610f1394612a156129dd6020612a439a6129cc612a2f9815614d93565b604051809381928d51928391613f87565b600d9082019081520301902060078101805460ff60a01b1916600160a01b17905591612a0c8760088501614b4b565b60098301614b4b565b600a810180546001600160a01b0319163317905501614b4b565b604051938493606085526060850190613faa565b903360208501528382036040850152613faa565b3461030557602080600319360112610305576004356001600160401b03811161030557612a88903690600401613f69565b9060405191805190612aec83820192612aa2818786613f87565b850191600e8352612ac360ff80948888600b9a8b9303019020015416615804565b612ad560405194859251928391613f87565b8301600e8152838560019586930301902001615883565b93845194612af986614317565b95612b076040519788613ef6565b808752612b16601f1991614317565b0160005b818110612cd5575050836000905b612b90575b5050505060405191808301818452845180915260408401918060408360051b8701019601926000905b838210612b635786880387f35b90919293948380612b7f839a603f198b820301865289516141ac565b999701959493919091019101612b56565b908496949392918151811015612ccc5780612bb7612bb1612cc19385614df5565b51613fcf565b85600c60405192612bc784613e6c565b612bd0816140b7565b8452612bdd8a82016140b7565b8c850152612bed600282016140b7565b6040850152612bfe600382016140b7565b6060850152612c0f600482016140b7565b6080850152612c20600582016140b7565b60a09081860152612c33600683016140b7565b60c086015260078201546001600160a01b0380821660e088015291612c6091901c85166101008701614d45565b612c6c600883016140b7565b610120860152612c7e600983016140b7565b610140860152600a82015416610160850152612c9b8882016140b7565b61018085015201541615156101a0820152612cb68289614df5565b526108508188614df5565b909192939496612b28565b50959395612b2d565b8690612ce2989698615968565b82828901015201969496612b1a565b3461030557600036600319011261030557612d0a6143ae565b600780546001600160a01b031981169091556000906001600160a01b03167f8be0079c531659141344cd1fd0a4f28419497f9722a3daafe3b4186f6b6457e08280a3005b34610305576020366003190112610305576001600160a01b03612d6f613ff5565b168015612d8e5760005260036020526020604060002054604051908152f35b60405162461bcd60e51b815260206004820152602960248201527f4552433732313a2061646472657373207a65726f206973206e6f7420612076616044820152683634b21037bbb732b960b91b6064820152608490fd5b34610305576020366003190112610305576004356001600160401b038111610305576114fa6020612e1b81933690600401613f69565b604051906104a560ff825193858181860196612e3881838a613f87565b8101600b8152030190205416614ab6565b34610305576020366003190112610305576020612e67600435614452565b6040516001600160a01b039091168152f35b3461030557600036600319011261030557601154612e9681614317565b90612ea46040519283613ef6565b80825260209081830160116000527f31ecc21a745e3968a04e9570e4425bc18fa8019c68028196b546d1669c200c68836000925b848410612ef257604051828152806103bd8185018a614021565b6001918291612f00856140b7565b8152019201920191908490612ed8565b34610305576060366003190112610305576001600160401b0360043581811161030557612f41903690600401613f69565b60243582811161030557612f59903690600401613f69565b9160443590811161030557612f72903690600401613f69565b9160405192825190602091612faa60ff600b85880193612f93818b87613f87565b8901988681600e9b8c815203019020015416614a73565b612fc160ff60405185818951612e38818389613f87565b612fcd84511515614af3565b60405183818751612fdf818387613f87565b81016009815203019020549460018060a01b038060075416331490811561312c575b81156130fe575b81156130d1575b501561309d579161307785600d613068878398968b9c6130989961305761308b9d7f4bb348c8e52124f1a18e983f64ad1bc5d380a3ca43654fbb2b8f73c71f3054599f614c4f565b604051948593849251928391613f87565b82019081520301902001614b4b565b604051948594604086526040860190613faa565b9184830390850152613faa565b0390a2005b606484886040519162461bcd60e51b8352600483015260248201526d139bdd08185d5d1a1bdc9a5e995960921b6044820152fd5b90506007604051868185516130e781838a613f87565b81018c815203019020015460081c1633148861300f565b80915060096040518781865161311581838b613f87565b81018d815203019020015460081c16331490613008565b80915060056040518781865161314381838b613f87565b81018d815203019020015416331490613001565b34610305576000366003190112610305576020600854604051908152f35b3461030557610d336114bf6131893661416a565b906040519261319784613edb565b600084526114af6114aa843361458c565b34610305576020366003190112610305576004356001600160401b038111610305576131e26131dd6020923690600401613f69565b615aac565b6040519015158152f35b34610305576020366003190112610305576004356001600160401b0381116103055761321c903690600401613f69565b604051818180935160208193019161323392613f87565b8101600e8152036020019020613248816140b7565b613254600283016140b7565b91613261600382016140b7565b9061326e600482016140b7565b60058201549060078301546008840154906009850154600b86015460ff1692600c87015494600d88016132a0906140b7565b97600e015460ff16986040519b8c9b8c6101e08091528d016132c191613faa565b8c810360208e01526132d291613faa565b8b810360408d01526132e391613faa565b8a810360608c01526132f491613faa565b6001600160a01b0380881660808c015290969093849161331e9060a08d81019160ff911c1661419f565b60ff8116151560c08c015260081c1660e08a015261010089015260ff8116151561012089015260081c1661014087015215156101608601526101808501528381036101a085015261336e91613faa565b9015156101c08301520390f35b3461030557610d3361338c3661416a565b91610f2a6114aa843361458c565b3461030557600036600319011261030557600f546133b781614317565b906133c56040519283613ef6565b808252602090818301600f6000527f8d1108e10bcb7c27dddfc02ed9d693a074039d026cf4ea4240b40f7d581ac802836000925b84841061341357604051828152806103bd8185018a614021565b6001918291613421856140b7565b81520192019201919084906133f9565b34610305576020366003190112610305576004356001600160401b03811161030557613461903690600401613f69565b604051818180935160208193019161347892613f87565b8101600d815203602001902061348d816140b7565b613499600183016140b7565b916134a6600282016140b7565b906134b3600382016140b7565b6134bf600483016140b7565b6134cb600584016140b7565b6134d7600685016140b7565b6007850154906134e9600887016140b7565b926134f6600988016140b7565b600a8801546001600160a01b031696909590613514600b8a016140b7565b98600c015460ff16996040519c8d9c8d6101c0908181520161353591613faa565b8d810360208f015261354691613faa565b8c810360408e015261355791613faa565b8b810360608d015261356891613faa565b8a810360808c015261357991613faa565b89810360a08b015261358a91613faa565b88810360c08a015261359b91613faa565b6001600160a01b03821660e0890152906135c09061010089019060a01c60ff1661415d565b8681036101208801526135d291613faa565b8581036101408701526135e491613faa565b906101608501528381036101808501526135fd91613faa565b9015156101a08301520390f35b346103055760003660031901126103055760105461362781614317565b906136356040519283613ef6565b80825260209081830160106000527f1b6847dc741a1b0cd08d278845f9d819d87b734759afb55fe2de5cb82a9ae672836000925b84841061368357604051828152806103bd8185018a614021565b6001918291613691856140b7565b8152019201920191908490613669565b34610305576040366003190112610305576136ba613ff5565b602435906001600160a01b0380806136d185614452565b169216918083146137cc578033149081156137a7575b501561373c57600083815260046020526040902080546001600160a01b0319168317905561371483614452565b167f8c5be1e5ebec7d5bd14f71427d1e84f3dd0314c0f7b2291e5b200ac8c7c3b925600080a4005b60405162461bcd60e51b815260206004820152603d60248201527f4552433732313a20617070726f76652063616c6c6572206973206e6f7420746f60448201527f6b656e206f776e6572206f7220617070726f76656420666f7220616c6c0000006064820152608490fd5b9050600052600560205260406000203360005260205260ff60406000205416846136e7565b60405162461bcd60e51b815260206004820152602160248201527f4552433732313a20617070726f76616c20746f2063757272656e74206f776e656044820152603960f91b6064820152608490fd5b34610305576020366003190112610305576020612e67600435614475565b34610305576080366003190112610305576001600160401b036004358181116103055761386a903690600401613f69565b602490813560443584811161030557613887903690600401613f69565b93606435908111610305576138a0903690600401613f69565b92604051938351916138c360ff600b6020988981818b019861112581838c613f87565b6138ee866001948587101580613c33575b6138dd90614d93565b604051809381928a51928391613f87565b8101600e8152030190209383811480600014613bdf5760ff600587015460a01c166004811015613bca576139229015615842565b6004821015613bb5576139388260058801614e15565b15613b5f575060405161394a81613ec0565b600781526614d2125414115160ca1b87820152955b6139d2602860068701926040519586916139c38d8d6139868151809286808a019101613f87565b85016301030ba160e51b848201526139a682518093868d85019101613f87565b01916301037b7160e51b8984015283519384918785019101613f87565b01036008810186520184613ef6565b805490600160401b821015613b4a57906139f09185820181556142ff565b919091613b36575090613a0291614b4b565b60008091600a8401928354905b818110613ad6575b505050917fd2d2affbf6c67df84fafb6860362e644970d21d60f3e7b9895360027c1a8adb29591610f139315613ac5575b50600981018054610100600160a81b0319163360081b610100600160a81b031617905560ff600e8201541680613aa3575b613a8b575b5060405193849384614d0e565b600c613a9d91015433610f2a82614452565b85613a7e565b50600c81015433906001600160a01b0390613abd90614452565b161415613a79565b613ad0903390614a04565b86613a48565b613ae081866142ff565b905460039190911b1c6001600160a01b03163314613b0657613b0190614dd0565b613a0f565b50909150829050610f137fd2d2affbf6c67df84fafb6860362e644970d21d60f3e7b9895360027c1a8adb2613a17565b634e487b7160e01b60005260006004526000fd5b82634e487b7160e01b60005260416004526000fd5b600203613b8f57604051613b7281613ec0565b600a815269125397d514905394d25560b21b878201525b9561395f565b604051613b9b81613ec0565b600981526811115312559154915160ba1b87820152613b89565b82634e487b7160e01b60005260216004526000fd5b83634e487b7160e01b60005260216004526000fd5b60028203613c0b5760ff600587015460a01c166004811015613bca5785613c069114615842565b613922565b600382036139225760ff600587015460a01c166004811015613bca576002613c069114615842565b5060038711156138d4565b34610305576020366003190112610305576004356001600160401b0381116103055760ff613c76602061133881943690600401613f69565b8101600b81520301902054166040519015158152f35b346103055760003660031901126103055760405160008054613cad8161407d565b808452906001908181169081156121755750600114613cd6576103bd846103a981860382613ef6565b600080805292507f290decd9548b62a8d60345a988386fc84ba6bc95484008f6362f93160ef3e5635b828410613d175750505081016020016103a98261210c565b80546020858701810191909152909301928101613cff565b346103055760203660031901126103055760043563ffffffff60e01b811680910361030557602090632483248360e11b8114908115613d74575b506040519015158152f35b6380ac58cd60e01b811491508115613da6575b8115613d95575b5082613d69565b6301ffc9a760e01b14905082613d8e565b635b5e139f60e01b81149150613d87565b3461030557602080600319360112610305576004356001600160401b03811161030557600a613e1083613df1613e20943690600401613f69565b604051906104a560ff600b83519486818187019761112581838b613f87565b8101600e815203019020016158d8565b906040519181839283018184528251809152816040850193019160005b828110613e4c57505050500390f35b83516001600160a01b031685528695509381019392810192600101613e3d565b6101c081019081106001600160401b0382111761178f57604052565b61024081019081106001600160401b0382111761178f57604052565b61012081019081106001600160401b0382111761178f57604052565b604081019081106001600160401b0382111761178f57604052565b602081019081106001600160401b0382111761178f57604052565b90601f801991011681019081106001600160401b0382111761178f57604052565b6001600160401b03811161178f57601f01601f191660200190565b929192613f3e82613f17565b91613f4c6040519384613ef6565b829481845281830111610305578281602093846000960137010152565b9080601f8301121561030557816020613f8493359101613f32565b90565b60005b838110613f9a5750506000910152565b8181015183820152602001613f8a565b90602091613fc381518092818552858086019101613f87565b601f01601f1916010190565b6020613fe8918160405193828580945193849201613f87565b8101600d81520301902090565b600435906001600160a01b038216820361030557565b602435906001600160a01b038216820361030557565b908082519081815260208091019281808460051b8301019501936000915b84831061404f5750505050505090565b909192939495848061406d600193601f198682030187528a51613faa565b980193019301919493929061403f565b90600182811c921680156140ad575b602083101461409757565b634e487b7160e01b600052602260045260246000fd5b91607f169161408c565b90604051918260008254926140cb8461407d565b90818452600194858116908160001461413a57506001146140f7575b50506140f592500383613ef6565b565b9093915060005260209081600020936000915b8183106141225750506140f5935082010138806140e7565b8554888401850152948501948794509183019161410a565b9150506140f594506020925060ff191682840152151560051b82010138806140e7565b906003821015611fb45752565b6060906003190112610305576001600160a01b0390600435828116810361030557916024359081168103610305579060443590565b906004821015611fb45752565b906142b861424161422f61421d61420b6141f96141e76141d589516101c0808b528a0190613faa565b60208a015189820360208b0152613faa565b604089015188820360408a0152613faa565b60608801518782036060890152613faa565b60808701518682036080880152613faa565b60a086015185820360a0870152613faa565b60c085015184820360c0860152613faa565b61429661428260018060a01b03928360e08801511660e087015261426e610100808901519088019061415d565b610120808801519087830390880152613faa565b610140808701519086830390870152613faa565b9061016090818601511690840152610180808501519084830390850152613faa565b916101a080910151151591015290565b6011548110156117795760116000527f31ecc21a745e3968a04e9570e4425bc18fa8019c68028196b546d1669c200c680190600090565b80548210156117795760005260206000200190600090565b6001600160401b03811161178f5760051b60200190565b9080601f830112156103055781359061434682614317565b926143546040519485613ef6565b828452602092838086019160051b8301019280841161030557848301915b8483106143825750505050505090565b82356001600160401b0381116103055786916143a384848094890101613f69565b815201920191614372565b6007546001600160a01b031633036143c257565b606460405162461bcd60e51b815260206004820152602060248201527f4f776e61626c653a2063616c6c6572206973206e6f7420746865206f776e65726044820152fd5b1561440d57565b60405162461bcd60e51b815260206004820152601860248201527f4552433732313a20696e76616c696420746f6b656e20494400000000000000006044820152606490fd5b6000908152600260205260409020546001600160a01b0316613f84811515614406565b600081815260026020526040902054614498906001600160a01b03161515614406565b6000908152600460205260409020546001600160a01b031690565b156144ba57565b60405162461bcd60e51b815260206004820152602d60248201527f4552433732313a2063616c6c6572206973206e6f7420746f6b656e206f776e6560448201526c1c881bdc88185c1c1c9bdd9959609a1b6064820152608490fd5b60809060208152603260208201527f4552433732313a207472616e7366657220746f206e6f6e20455243373231526560408201527131b2b4bb32b91034b6b83632b6b2b73a32b960711b60608201520190565b1561456f57565b60405162461bcd60e51b81528061458860048201614515565b0390fd5b906001600160a01b0380806145a084614452565b169316918383149384156145d3575b5083156145bd575b50505090565b6145c991929350614475565b16143880806145b7565b909350600052600560205260406000208260005260205260ff6040600020541692386145af565b1561460157565b60405162461bcd60e51b815260206004820152602560248201527f4552433732313a207472616e736665722066726f6d20696e636f72726563742060448201526437bbb732b960d91b6064820152608490fd5b6146789161466184614452565b6001600160a01b03938484169391851684146145fa565b838216938415614808576146a892849283151580614800575b614723575b50506146a186614452565b16146145fa565b7fddf252ad1be2c89b69c2b068fc378daa952ba7f163c4a11628f55a4df523b3ef60008481526004602052604081206001600160601b0360a01b9081815416905583825260036020526040822060001981540190558482526040822060018154019055858252600260205284604083209182541617905580a4565b87600052600a60205261473960406000206140b7565b805180614748575b5050614696565b836147e881600a6147d860206147f4966147c77f6840904f5b31827f74e1497360da245f56e530c8c3de3163a2d31f11493273c69b600984808d604051928391019661479581838a613f87565b600e90820190815203019020018054610100600160a81b03191660089290921b610100600160a81b0316919091179055565b604051809381928b51928391613f87565b8101600e81520301902001614a04565b60405193849384614a44565b0390a138808080614741565b506001614691565b60405162461bcd60e51b8152602060048201526024808201527f4552433732313a207472616e7366657220746f20746865207a65726f206164646044820152637265737360e01b6064820152608490fd5b9192600092909190803b1561496f576148a7946040518092630a85bd0160e11b9485835233600484015287602484015260448301526080606483015281878160209a8b966084830190613faa565b03926001600160a01b03165af184918161492b575b5061491a575050503d600014614912573d6148d681613f17565b906148e46040519283613ef6565b81528091833d92013e5b8051918261490f5760405162461bcd60e51b81528061458860048201614515565b01fd5b5060606148ee565b6001600160e01b0319161492509050565b9091508581813d8311614968575b6149438183613ef6565b8101031261496457516001600160e01b0319811681036149645790386148bc565b8480fd5b503d614939565b5050915050600190565b9293600093909291803b156149f9579484916149d39660405180948193630a85bd0160e11b9788845233600485015260018060a01b0380921660248501526044840152608060648401528260209b8c976084830190613faa565b0393165af184918161492b575061491a575050503d600014614912573d6148d681613f17565b505050915050600190565b8054600160401b81101561178f57614a21916001820181556142ff565b819291549060031b9160018060a01b039283811b93849216901b16911916179055565b91614a5c604092959495606085526060850190613faa565b6001600160a01b0391821660208501529416910152565b15614a7a57565b60405162461bcd60e51b815260206004820152601460248201527315d85d18da08191bd95cc81b9bdd08195e1a5cdd60621b6044820152606490fd5b15614abd57565b60405162461bcd60e51b815260206004820152600e60248201526d139195081b9bdd081b5a5b9d195960921b6044820152606490fd5b15614afa57565b60405162461bcd60e51b8152602060048201526012602482015271456d707479206d657461646174612055524960701b6044820152606490fd5b818110614b3f575050565b60008155600101614b34565b91909182516001600160401b03811161178f57614b68825461407d565b601f8111614c12575b50602080601f8311600114614bae575081929394600092614ba3575b50508160011b916000199060031b1c1916179055565b015190503880614b8d565b90601f198316958460005282600020926000905b888210614bfa57505083600195969710614be1575b505050811b019055565b015160001960f88460031b161c19169055388080614bd7565b80600185968294968601518155019501930190614bc2565b614c3f90836000526020600020601f840160051c81019160208510614c45575b601f0160051c0190614b34565b38614b71565b9091508190614c32565b6000818152600260205260409020549091906001600160a01b031615614cb25781614ca96020927ff8e1a15aba9398e019f0b49df1a4fde98ee17ae345cb5f6b5e2c27f5033e8ce794600052600684526040600020614b4b565b604051908152a1565b60405162461bcd60e51b815260206004820152602e60248201527f45524337323155524953746f726167653a2055524920736574206f66206e6f6e60448201526d32bc34b9ba32b73a103a37b5b2b760911b6064820152608490fd5b91614d3790614d29613f849593606086526060860190613faa565b908482036020860152613faa565b916040818403910152613faa565b6003821015611fb45752565b15614d5857565b60405162461bcd60e51b815260206004820152601360248201527210dbdb5c1bdb995b9d081b9bdd08199bdd5b99606a1b6044820152606490fd5b15614d9a57565b60405162461bcd60e51b815260206004820152600e60248201526d496e76616c69642073746174757360901b6044820152606490fd5b6000198114614ddf5760010190565b634e487b7160e01b600052601160045260246000fd5b80518210156117795760209160051b010190565b6004821015611fb45752565b906004811015611fb457815460ff60a01b191660a09190911b60ff60a01b16179055565b91909593949260ff600b6040516020818751614e588183858c01613f87565b8101600e81520301902001541661578457600387511061574a57614e7e84511515614af3565b60005b8751811015614f3157614ea660ff600c614e9e612bb1858d614df5565b015416614d51565b60079060ff82614eb9612bb1848d614df5565b015460a01c166003811015611fb457600103614efc57614ef791614ee0612bb1838c614df5565b01805460ff60a01b1916600160a11b179055614dd0565b614e81565b60405162461bcd60e51b815260206004820152600d60248201526c139bdd0818d95c9d1a599a5959609a1b6044820152606490fd5b509091929495939560405191614f4683613ec0565b600183526020830160203682378351156117795733905260405193614f6a85613e88565b8585528660208601526040850152606084015260808301523360a0830152600060c0830152606060e08301526000610100830152600061012083015260006101408301526000610160830152336101808301526101a082015260016101c082015260006101e08201528361020082015260006102208201526040516020818451614ff78183858901613f87565b8101600e8152030190209061500d815183614b4b565b6020810151805190600160401b821161178f5760018401548260018601558083106156cb575b506020016001840160005260206000206000915b8383106156ae5750505050615063604082015160028401614b4b565b615074606082015160038401614b4b565b615085608082015160048401614b4b565b60a08101516005830180546001600160a01b0319166001600160a01b039290921691909117905560c08101516004811015611fb4576150c79060058401614e15565b60e0810151805190600160401b821161178f57600684015482600686015580831061562f575b506020016006840160005260206000206000915b8383106156125750505050615158600783016151306101008401511515829060ff801983541691151516179055565b6101208301518154610100600160a81b03191660089190911b610100600160a81b0316179055565b61014081015160088301556151af600983016151876101608401511515829060ff801983541691151516179055565b6101808301518154610100600160a81b03191660089190911b610100600160a81b0316179055565b6101a08101518051906001600160401b03821161178f57600160401b821161178f57602090600a85015483600a8701558084106155f2575b5001600a8401600052602060002060005b8381106155d5575050505090600e6102208361522d6101c061524a9601511515600b86019060ff801983541691151516179055565b6101e0810151600c850155612510610200820151600d8601614b4b565b601154600160401b81101561178f5780600161526992016011556142c8565b6155bf578161527791614b4b565b6152a560ff600b60405160208186516152938183858b01613f87565b8101600e815203019020015416614a73565b60ff60405160208184516152bc8183858901613f87565b8101600b8152030190205416615585576152d883511515614af3565b6008549160018301600855604051906152f082613edb565b600082523315615541577fdfe234ce38812950df2532661c69bde9f300d6281c3ebd3bf1c70d6cef57ae2094846153d96114bf61553c9561535261534c61552e9a600052600260205260018060a01b0360406000205416151590565b156157b8565b600084815260026020526040902054615375906001600160a01b0316151561534c565b3360005260036020526040600020600181540190558360005260026020526040600020336001600160601b0360a01b825416179055833360007fddf252ad1be2c89b69c2b068fc378daa952ba7f163c4a11628f55a4df523b3ef8180a48333614859565b6153e38282614c4f565b8060405160208188516153f98183858d01613f87565b810160098152030190205580600052600a60205261541b856040600020614b4b565b60405160208187516154308183858c01613f87565b8101600b81520301902060ff199060018282541617905581600c604051602081816154618c83815193849201613f87565b8101600e815203019020015561549a83600d6040516020818161548a8d83815193849201613f87565b8101600e81520301902001614b4b565b6001600e604051602081816154b58c83815193849201613f87565b81018481520301902001918254161790556040518086516154da818360208b01613f87565b81010390207fbf06fe3b8784672aae16f235bd81718b479f381998657c2d652565f09731483b604051602081528061551733966020830190613faa565b0390a4604051938493604085526040850190613faa565b908382036020850152614021565b0390a1565b606460405162461bcd60e51b815260206004820152602060248201527f4552433732313a206d696e7420746f20746865207a65726f20616464726573736044820152fd5b60405162461bcd60e51b815260206004820152601260248201527113919508185b1c9958591e481b5a5b9d195960721b6044820152606490fd5b634e487b7160e01b600052600060045260246000fd5b82516001600160a01b0316818301556020909201916001016151f8565b61560c90600a870160005284846000209182019101614b34565b386151e7565b600160208261562383945186614b4b565b01920192019190615101565b600685016000526020600020908382015b81830181106156505750506150ed565b8061565d6001925461407d565b8061566a575b5001615640565b601f908181118414615683575050600081555b38615663565b8361569f92846000526020600020920160051c82019101614b34565b6000602081208183555561567d565b60016020826156bf83945186614b4b565b01920192019190615047565b600185016000526020600020908382015b81830181106156ec575050615033565b806156f96001925461407d565b80615706575b50016156dc565b601f90818111841461571f575050600081555b386156ff565b8361573b92846000526020600020920160051c82019101614b34565b60006020812081835555615719565b60405162461bcd60e51b81526020600482015260126024820152714e65656420332b20636f6d706f6e656e747360701b6044820152606490fd5b60405162461bcd60e51b815260206004820152600c60248201526b57617463682065786973747360a01b6044820152606490fd5b156157bf57565b60405162461bcd60e51b815260206004820152601c60248201527f4552433732313a20746f6b656e20616c7265616479206d696e746564000000006044820152606490fd5b1561580b57565b60405162461bcd60e51b815260206004820152600f60248201526e15d85d18da081b9bdd08199bdd5b99608a1b6044820152606490fd5b1561584957565b60405162461bcd60e51b815260206004820152601260248201527124b73b30b634b2103a3930b739b4ba34b7b760711b6044820152606490fd5b90815461588f81614317565b9261589d6040519485613ef6565b818452600090815260208082208186015b8484106158bc575050505050565b60018381926158ca856140b7565b8152019201930192906158ae565b9060405191828154918282526020928383019160005283600020936000905b82821061590d575050506140f592500383613ef6565b85546001600160a01b0316845260019586019588955093810193909101906158f7565b1561593757565b60405162461bcd60e51b8152602060048201526009602482015268139bdd08199bdd5b9960ba1b6044820152606490fd5b6040519061597582613e6c565b60006101a083606080825280602083015280604083015280808301528060808301528060a08301528060c08301528360e0830152836101008301528061012083015280610140830152836101608301526101808201520152565b6040519081600082546159e18161407d565b93600191808316908115615a465750600114615a09575b505060209250600e81520301902090565b90915060005260209081600020906000915b858310615a325750505050602091810138806159f8565b805487840152869450918301918101615a1b565b92505050602093915060ff1916825280151502810138806159f8565b90615a6c82614317565b615a796040519182613ef6565b8281528092615a8a601f1991614317565b019060005b828110615a9b57505050565b806060602080938501015201615a8f565b604051908051906020810191615ac3818585613f87565b8301600e8152600b84602060ff9687940301902001541615615c6857615af791602091604051938492839251928391613f87565b8101600e8152030190209060405190615b0f82613e88565b615b18836140b7565b8252615b2660018401615883565b6020830152615b37600284016140b7565b6040830152615b48600384016140b7565b6060830152615b59600484016140b7565b6080830152600583015491615b858260018060a01b039485811660a085015260a01c1660c08301614e09565b615b9160068501615883565b60e08201526007840154836101008301918481161515835260081c166101208301526008850154916101408101928352610220600987015494600e61016084019882881615158a528861018086019860081c168852615bf2600a82016158d8565b6101a086015282600b8201541615156101c0860152600c8101546101e0860152615c1e600d82016140b7565b61020086015201541615159101525115159384615c5e575b5083615c53575b5082615c4857505090565b909150511633141590565b511515925038615c3d565b5115935038615c36565b50505060009056fea2646970667358221220c9b15f1f7a6e272ce5774ea93529d9a149d7a1b3cb3795fa10b55c66e40642df64736f6c63430008110033",
  "linkReferences": {},
  "deployedLinkReferences": {}
}